{
  "address": "0x2E2e3E6AF5cB6A54B55F326546757Ec2C8412c39",
  "abi": [
    {
      "inputs": [
        {
          "internalType": "address",
          "name": "token",
          "type": "address"
        }
      ],
      "stateMutability": "nonpayable",
      "type": "constructor"
    },
    {
      "inputs": [],
      "name": "SwapOutFailed",
      "type": "error"
    },
    {
      "anonymous": false,
      "inputs": [
        {
          "indexed": false,
          "internalType": "address",
          "name": "admin",
          "type": "address"
        }
      ],
      "name": "LogAcceptAdmin",
      "type": "event"
    },
    {
      "anonymous": false,
      "inputs": [
        {
          "indexed": false,
          "internalType": "address",
          "name": "admin",
          "type": "address"
        }
      ],
      "name": "LogSetAdmin",
      "type": "event"
    },
    {
      "anonymous": false,
      "inputs": [
        {
          "indexed": false,
          "internalType": "address",
          "name": "oldadmin",
          "type": "address"
        },
        {
          "indexed": false,
          "internalType": "address",
          "name": "newadmin",
          "type": "address"
        }
      ],
      "name": "LogTransferAdmin",
      "type": "event"
    },
    {
      "anonymous": false,
      "inputs": [
        {
          "indexed": false,
          "internalType": "uint256[]",
          "name": "chainIDs",
          "type": "uint256[]"
        },
        {
          "indexed": false,
          "internalType": "address[]",
          "name": "peers",
          "type": "address[]"
        }
      ],
      "name": "SetPeers",
      "type": "event"
    },
    {
      "anonymous": false,
      "inputs": [
        {
          "indexed": false,
          "internalType": "uint256",
          "name": "tokenId",
          "type": "uint256"
        },
        {
          "indexed": false,
          "internalType": "address",
          "name": "sender",
          "type": "address"
        },
        {
          "indexed": false,
          "internalType": "address",
          "name": "receiver",
          "type": "address"
        },
        {
          "indexed": false,
          "internalType": "uint256",
          "name": "toChainID",
          "type": "uint256"
        }
      ],
      "name": "SwapOut",
      "type": "event"
    },
    {
      "inputs": [
        {
          "internalType": "uint256",
          "name": "tokenId",
          "type": "uint256"
        },
        {
          "internalType": "address",
          "name": "receiver",
          "type": "address"
        },
        {
          "internalType": "uint256",
          "name": "destChainID",
          "type": "uint256"
        }
      ],
      "name": "Swapout",
      "outputs": [
        {
          "internalType": "uint256",
          "name": "",
          "type": "uint256"
        }
      ],
      "stateMutability": "payable",
      "type": "function"
    },
    {
      "inputs": [],
      "name": "acceptAdmin",
      "outputs": [],
      "stateMutability": "nonpayable",
      "type": "function"
    },
    {
      "inputs": [],
      "name": "admin",
      "outputs": [
        {
          "internalType": "address",
          "name": "",
          "type": "address"
        }
      ],
      "stateMutability": "view",
      "type": "function"
    },
    {
      "inputs": [
        {
          "internalType": "uint256",
          "name": "foreignChainID",
          "type": "uint256"
        }
      ],
      "name": "getPeer",
      "outputs": [
        {
          "internalType": "address",
          "name": "",
          "type": "address"
        }
      ],
      "stateMutability": "view",
      "type": "function"
    },
    {
      "inputs": [],
      "name": "pendingAdmin",
      "outputs": [
        {
          "internalType": "address",
          "name": "",
          "type": "address"
        }
      ],
      "stateMutability": "view",
      "type": "function"
    },
    {
      "inputs": [
        {
          "internalType": "uint256[]",
          "name": "chainIDs",
          "type": "uint256[]"
        },
        {
          "internalType": "address[]",
          "name": "peers",
          "type": "address[]"
        }
      ],
      "name": "setPeers",
      "outputs": [],
      "stateMutability": "nonpayable",
      "type": "function"
    },
    {
      "inputs": [],
      "name": "swapoutSeq",
      "outputs": [
        {
          "internalType": "uint256",
          "name": "",
          "type": "uint256"
        }
      ],
      "stateMutability": "view",
      "type": "function"
    },
    {
      "inputs": [],
      "name": "token",
      "outputs": [
        {
          "internalType": "address",
          "name": "",
          "type": "address"
        }
      ],
      "stateMutability": "view",
      "type": "function"
    },
    {
      "inputs": [
        {
          "internalType": "address",
          "name": "newAdmin",
          "type": "address"
        }
      ],
      "name": "transferAdmin",
      "outputs": [],
      "stateMutability": "nonpayable",
      "type": "function"
    }
  ],
  "transactionHash": "0x6db51092ed04c1916f274afcb8f6aa949e224beccc92e03cc2f443b6f8b0b1b4",
  "args": [
    "0xb9814b579Bd96D445f15309d2fC0da5D3fF7A68a"
  ],
  "numDeployments": 1,
  "solcInputHash": "46ee4ca2225a2abf0418100a926fb2e3",
  "bytecode": "0x60806040523480156200001157600080fd5b506040516200111938038062001119833981810160405281019062000037919062000178565b8062000049336200009260201b60201c565b80600260006101000a81548173ffffffffffffffffffffffffffffffffffffffff021916908373ffffffffffffffffffffffffffffffffffffffff1602179055505050620001d8565b806000806101000a81548173ffffffffffffffffffffffffffffffffffffffff021916908373ffffffffffffffffffffffffffffffffffffffff1602179055507fd9be138201bddb701e32a38e3dff605053c22b8f66e2a46b7f3aec9091f5a41481604051620001039190620001bb565b60405180910390a150565b600080fd5b600073ffffffffffffffffffffffffffffffffffffffff82169050919050565b6000620001408262000113565b9050919050565b620001528162000133565b81146200015e57600080fd5b50565b600081519050620001728162000147565b92915050565b6000602082840312156200019157620001906200010e565b5b6000620001a18482850162000161565b91505092915050565b620001b58162000133565b82525050565b6000602082019050620001d26000830184620001aa565b92915050565b610f3180620001e86000396000f3fe6080604052600436106100865760003560e01c80636994c700116100595780636994c7001461013357806375829def14610163578063a3d564571461018c578063f851a440146101b7578063fc0c546a146101e257610086565b80630e18b6811461008b57806326782247146100a25780632de2c8ad146100cd57806367ebb6b2146100f6575b600080fd5b34801561009757600080fd5b506100a061020d565b005b3480156100ae57600080fd5b506100b7610364565b6040516100c49190610801565b60405180910390f35b3480156100d957600080fd5b506100f460048036038101906100ef9190610aae565b61038a565b005b34801561010257600080fd5b5061011d60048036038101906101189190610b26565b6104c5565b60405161012a9190610801565b60405180910390f35b61014d60048036038101906101489190610b53565b610502565b60405161015a9190610bb5565b60405180910390f35b34801561016f57600080fd5b5061018a60048036038101906101859190610bd0565b6105aa565b005b34801561019857600080fd5b506101a16106a7565b6040516101ae9190610bb5565b60405180910390f35b3480156101c357600080fd5b506101cc6106ad565b6040516101d99190610801565b60405180910390f35b3480156101ee57600080fd5b506101f76106d1565b6040516102049190610801565b60405180910390f35b600160009054906101000a900473ffffffffffffffffffffffffffffffffffffffff1673ffffffffffffffffffffffffffffffffffffffff163373ffffffffffffffffffffffffffffffffffffffff161461026757600080fd5b600160009054906101000a900473ffffffffffffffffffffffffffffffffffffffff166000806101000a81548173ffffffffffffffffffffffffffffffffffffffff021916908373ffffffffffffffffffffffffffffffffffffffff1602179055506000600160006101000a81548173ffffffffffffffffffffffffffffffffffffffff021916908373ffffffffffffffffffffffffffffffffffffffff1602179055507f803a94fb89b71a5b6268fe4f2ebd6f3883e006a025caa59244b9db7b150cb16d60008054906101000a900473ffffffffffffffffffffffffffffffffffffffff1660405161035a9190610801565b60405180910390a1565b600160009054906101000a900473ffffffffffffffffffffffffffffffffffffffff1681565b60008054906101000a900473ffffffffffffffffffffffffffffffffffffffff1673ffffffffffffffffffffffffffffffffffffffff163373ffffffffffffffffffffffffffffffffffffffff16146103e257600080fd5b60005b82518110156104c05781818151811061040157610400610bfd565b5b6020026020010151600460008584815181106104205761041f610bfd565b5b6020026020010151815260200190815260200160002060006101000a81548173ffffffffffffffffffffffffffffffffffffffff021916908373ffffffffffffffffffffffffffffffffffffffff1602179055507f78cbf7dbde8a3a1885fc6f780785a8001f6ed4b9969b08ddf732dcc307209e5183836040516104a5929190610da8565b60405180910390a180806104b890610e0e565b9150506103e5565b505050565b60006004600083815260200190815260200160002060009054906101000a900473ffffffffffffffffffffffffffffffffffffffff169050919050565b60008061050e856106f7565b50905080610548576040517f05710e7400000000000000000000000000000000000000000000000000000000815260040160405180910390fd5b6003600081548092919061055b90610e0e565b91905055507f791a9c7365da700dd25d72c19bf2a1bbaf80fd3b787b772e4117181c9dae85d7853386866040516105959493929190610e56565b60405180910390a16003549150509392505050565b60008054906101000a900473ffffffffffffffffffffffffffffffffffffffff1673ffffffffffffffffffffffffffffffffffffffff163373ffffffffffffffffffffffffffffffffffffffff161461060257600080fd5b6000600160009054906101000a900473ffffffffffffffffffffffffffffffffffffffff16905081600160006101000a81548173ffffffffffffffffffffffffffffffffffffffff021916908373ffffffffffffffffffffffffffffffffffffffff1602179055507f0ad836e1614da10ff391cfc802a39f547f3cdc42900fa72de16b085855c169d5818360405161069b929190610e9b565b60405180910390a15050565b60035481565b60008054906101000a900473ffffffffffffffffffffffffffffffffffffffff1681565b600260009054906101000a900473ffffffffffffffffffffffffffffffffffffffff1681565b60006060600260009054906101000a900473ffffffffffffffffffffffffffffffffffffffff1673ffffffffffffffffffffffffffffffffffffffff166323b872dd3330866040518463ffffffff1660e01b815260040161075a93929190610ec4565b600060405180830381600087803b15801561077457600080fd5b505af1925050508015610785575060015b6107a457600060405180602001604052806000815250915091506107bb565b600160405180602001604052806000815250915091505b915091565b600073ffffffffffffffffffffffffffffffffffffffff82169050919050565b60006107eb826107c0565b9050919050565b6107fb816107e0565b82525050565b600060208201905061081660008301846107f2565b92915050565b6000604051905090565b600080fd5b600080fd5b600080fd5b6000601f19601f8301169050919050565b7f4e487b7100000000000000000000000000000000000000000000000000000000600052604160045260246000fd5b61087e82610835565b810181811067ffffffffffffffff8211171561089d5761089c610846565b5b80604052505050565b60006108b061081c565b90506108bc8282610875565b919050565b600067ffffffffffffffff8211156108dc576108db610846565b5b602082029050602081019050919050565b600080fd5b6000819050919050565b610905816108f2565b811461091057600080fd5b50565b600081359050610922816108fc565b92915050565b600061093b610936846108c1565b6108a6565b9050808382526020820190506020840283018581111561095e5761095d6108ed565b5b835b8181101561098757806109738882610913565b845260208401935050602081019050610960565b5050509392505050565b600082601f8301126109a6576109a5610830565b5b81356109b6848260208601610928565b91505092915050565b600067ffffffffffffffff8211156109da576109d9610846565b5b602082029050602081019050919050565b6109f4816107e0565b81146109ff57600080fd5b50565b600081359050610a11816109eb565b92915050565b6000610a2a610a25846109bf565b6108a6565b90508083825260208201905060208402830185811115610a4d57610a4c6108ed565b5b835b81811015610a765780610a628882610a02565b845260208401935050602081019050610a4f565b5050509392505050565b600082601f830112610a9557610a94610830565b5b8135610aa5848260208601610a17565b91505092915050565b60008060408385031215610ac557610ac4610826565b5b600083013567ffffffffffffffff811115610ae357610ae261082b565b5b610aef85828601610991565b925050602083013567ffffffffffffffff811115610b1057610b0f61082b565b5b610b1c85828601610a80565b9150509250929050565b600060208284031215610b3c57610b3b610826565b5b6000610b4a84828501610913565b91505092915050565b600080600060608486031215610b6c57610b6b610826565b5b6000610b7a86828701610913565b9350506020610b8b86828701610a02565b9250506040610b9c86828701610913565b9150509250925092565b610baf816108f2565b82525050565b6000602082019050610bca6000830184610ba6565b92915050565b600060208284031215610be657610be5610826565b5b6000610bf484828501610a02565b91505092915050565b7f4e487b7100000000000000000000000000000000000000000000000000000000600052603260045260246000fd5b600081519050919050565b600082825260208201905092915050565b6000819050602082019050919050565b610c61816108f2565b82525050565b6000610c738383610c58565b60208301905092915050565b6000602082019050919050565b6000610c9782610c2c565b610ca18185610c37565b9350610cac83610c48565b8060005b83811015610cdd578151610cc48882610c67565b9750610ccf83610c7f565b925050600181019050610cb0565b5085935050505092915050565b600081519050919050565b600082825260208201905092915050565b6000819050602082019050919050565b610d1f816107e0565b82525050565b6000610d318383610d16565b60208301905092915050565b6000602082019050919050565b6000610d5582610cea565b610d5f8185610cf5565b9350610d6a83610d06565b8060005b83811015610d9b578151610d828882610d25565b9750610d8d83610d3d565b925050600181019050610d6e565b5085935050505092915050565b60006040820190508181036000830152610dc28185610c8c565b90508181036020830152610dd68184610d4a565b90509392505050565b7f4e487b7100000000000000000000000000000000000000000000000000000000600052601160045260246000fd5b6000610e19826108f2565b91507fffffffffffffffffffffffffffffffffffffffffffffffffffffffffffffffff8203610e4b57610e4a610ddf565b5b600182019050919050565b6000608082019050610e6b6000830187610ba6565b610e7860208301866107f2565b610e8560408301856107f2565b610e926060830184610ba6565b95945050505050565b6000604082019050610eb060008301856107f2565b610ebd60208301846107f2565b9392505050565b6000606082019050610ed960008301866107f2565b610ee660208301856107f2565b610ef36040830184610ba6565b94935050505056fea2646970667358221220c1e83a98153c50be5c6151eb1e2429e0150fdab13a73dc69d9281cd93fec068a64736f6c63430008130033",
  "devdoc": {
    "kind": "dev",
    "methods": {},
    "version": 1
  },
  "userdoc": {
    "kind": "user",
    "methods": {},
    "version": 1
  },
  "storageLayout": {
    "storage": [
      {
        "astId": 3679,
        "contract": "contracts/ERC721GatewaySource.sol:ERC721GatewaySource",
        "label": "admin",
        "offset": 0,
        "slot": "0",
        "type": "t_address"
      },
      {
        "astId": 3681,
        "contract": "contracts/ERC721GatewaySource.sol:ERC721GatewaySource",
        "label": "pendingAdmin",
        "offset": 0,
        "slot": "1",
        "type": "t_address"
      },
      {
        "astId": 3110,
        "contract": "contracts/ERC721GatewaySource.sol:ERC721GatewaySource",
        "label": "token",
        "offset": 0,
        "slot": "2",
        "type": "t_address"
      },
      {
        "astId": 3112,
        "contract": "contracts/ERC721GatewaySource.sol:ERC721GatewaySource",
        "label": "swapoutSeq",
        "offset": 0,
        "slot": "3",
        "type": "t_uint256"
      },
      {
        "astId": 3116,
        "contract": "contracts/ERC721GatewaySource.sol:ERC721GatewaySource",
        "label": "peer",
        "offset": 0,
        "slot": "4",
        "type": "t_mapping(t_uint256,t_address)"
      }
    ],
    "types": {
      "t_address": {
        "encoding": "inplace",
        "label": "address",
        "numberOfBytes": "20"
      },
      "t_mapping(t_uint256,t_address)": {
        "encoding": "mapping",
        "key": "t_uint256",
        "label": "mapping(uint256 => address)",
        "numberOfBytes": "32",
        "value": "t_address"
      },
      "t_uint256": {
        "encoding": "inplace",
        "label": "uint256",
        "numberOfBytes": "32"
      }
    }
  }
}