{
  "address": "0x5C98371Bd0eda3E76C1167AE63fBBba09feFca9a",
  "abi": [
    {
      "inputs": [
        {
          "internalType": "address",
          "name": "token_",
          "type": "address"
        }
      ],
      "stateMutability": "nonpayable",
      "type": "constructor"
    },
    {
      "anonymous": false,
      "inputs": [
        {
          "indexed": false,
          "internalType": "address",
          "name": "admin",
          "type": "address"
        }
      ],
      "name": "LogAcceptAdmin",
      "type": "event"
    },
    {
      "anonymous": false,
      "inputs": [
        {
          "indexed": false,
          "internalType": "address",
          "name": "admin",
          "type": "address"
        }
      ],
      "name": "LogSetAdmin",
      "type": "event"
    },
    {
      "anonymous": false,
      "inputs": [
        {
          "indexed": false,
          "internalType": "address",
          "name": "oldadmin",
          "type": "address"
        },
        {
          "indexed": false,
          "internalType": "address",
          "name": "newadmin",
          "type": "address"
        }
      ],
      "name": "LogTransferAdmin",
      "type": "event"
    },
    {
      "inputs": [
        {
          "internalType": "uint256",
          "name": "tokenId",
          "type": "uint256"
        },
        {
          "internalType": "address",
          "name": "receiver",
          "type": "address"
        },
        {
          "internalType": "string",
          "name": "uri",
          "type": "string"
        }
      ],
      "name": "Swapin",
      "outputs": [
        {
          "internalType": "bool",
          "name": "",
          "type": "bool"
        }
      ],
      "stateMutability": "nonpayable",
      "type": "function"
    },
    {
      "inputs": [],
      "name": "acceptAdmin",
      "outputs": [],
      "stateMutability": "nonpayable",
      "type": "function"
    },
    {
      "inputs": [],
      "name": "admin",
      "outputs": [
        {
          "internalType": "address",
          "name": "",
          "type": "address"
        }
      ],
      "stateMutability": "view",
      "type": "function"
    },
    {
      "inputs": [],
      "name": "pendingAdmin",
      "outputs": [
        {
          "internalType": "address",
          "name": "",
          "type": "address"
        }
      ],
      "stateMutability": "view",
      "type": "function"
    },
    {
      "inputs": [],
      "name": "token",
      "outputs": [
        {
          "internalType": "address",
          "name": "",
          "type": "address"
        }
      ],
      "stateMutability": "view",
      "type": "function"
    },
    {
      "inputs": [
        {
          "internalType": "address",
          "name": "newAdmin",
          "type": "address"
        }
      ],
      "name": "transferAdmin",
      "outputs": [],
      "stateMutability": "nonpayable",
      "type": "function"
    }
  ],
  "transactionHash": "0x2f0f86701973ea7fce2c0968857c8fcbe93a2133dad335855e37fb8faedf7b61",
  "args": [
    "0xaFCEcEb4c40E5Dc7daD9F87905906FCBE4e4B054"
  ],
  "numDeployments": 1,
  "solcInputHash": "46ee4ca2225a2abf0418100a926fb2e3",
  "bytecode": "0x608060405234801561001057600080fd5b50604051610ab9380380610ab983398181016040528101906100329190610165565b6100413361008860201b60201c565b80600260006101000a81548173ffffffffffffffffffffffffffffffffffffffff021916908373ffffffffffffffffffffffffffffffffffffffff160217905550506101bc565b806000806101000a81548173ffffffffffffffffffffffffffffffffffffffff021916908373ffffffffffffffffffffffffffffffffffffffff1602179055507fd9be138201bddb701e32a38e3dff605053c22b8f66e2a46b7f3aec9091f5a414816040516100f791906101a1565b60405180910390a150565b600080fd5b600073ffffffffffffffffffffffffffffffffffffffff82169050919050565b600061013282610107565b9050919050565b61014281610127565b811461014d57600080fd5b50565b60008151905061015f81610139565b92915050565b60006020828403121561017b5761017a610102565b5b600061018984828501610150565b91505092915050565b61019b81610127565b82525050565b60006020820190506101b66000830184610192565b92915050565b6108ee806101cb6000396000f3fe608060405234801561001057600080fd5b50600436106100625760003560e01c80630e18b68114610067578063267822471461007157806375829def1461008f578063d4978530146100ab578063f851a440146100db578063fc0c546a146100f9575b600080fd5b61006f610117565b005b61007961026e565b604051610086919061051a565b60405180910390f35b6100a960048036038101906100a49190610575565b610294565b005b6100c560048036038101906100c0919061071e565b610391565b6040516100d291906107a8565b60405180910390f35b6100e361048f565b6040516100f0919061051a565b60405180910390f35b6101016104b3565b60405161010e919061051a565b60405180910390f35b600160009054906101000a900473ffffffffffffffffffffffffffffffffffffffff1673ffffffffffffffffffffffffffffffffffffffff163373ffffffffffffffffffffffffffffffffffffffff161461017157600080fd5b600160009054906101000a900473ffffffffffffffffffffffffffffffffffffffff166000806101000a81548173ffffffffffffffffffffffffffffffffffffffff021916908373ffffffffffffffffffffffffffffffffffffffff1602179055506000600160006101000a81548173ffffffffffffffffffffffffffffffffffffffff021916908373ffffffffffffffffffffffffffffffffffffffff1602179055507f803a94fb89b71a5b6268fe4f2ebd6f3883e006a025caa59244b9db7b150cb16d60008054906101000a900473ffffffffffffffffffffffffffffffffffffffff16604051610264919061051a565b60405180910390a1565b600160009054906101000a900473ffffffffffffffffffffffffffffffffffffffff1681565b60008054906101000a900473ffffffffffffffffffffffffffffffffffffffff1673ffffffffffffffffffffffffffffffffffffffff163373ffffffffffffffffffffffffffffffffffffffff16146102ec57600080fd5b6000600160009054906101000a900473ffffffffffffffffffffffffffffffffffffffff16905081600160006101000a81548173ffffffffffffffffffffffffffffffffffffffff021916908373ffffffffffffffffffffffffffffffffffffffff1602179055507f0ad836e1614da10ff391cfc802a39f547f3cdc42900fa72de16b085855c169d581836040516103859291906107c3565b60405180910390a15050565b60008060009054906101000a900473ffffffffffffffffffffffffffffffffffffffff1673ffffffffffffffffffffffffffffffffffffffff163373ffffffffffffffffffffffffffffffffffffffff16146103ec57600080fd5b600260009054906101000a900473ffffffffffffffffffffffffffffffffffffffff1673ffffffffffffffffffffffffffffffffffffffff1663d3fc98648486856040518463ffffffff1660e01b815260040161044b9392919061087a565b600060405180830381600087803b15801561046557600080fd5b505af1925050508015610476575060015b6104835760009050610488565b600190505b9392505050565b60008054906101000a900473ffffffffffffffffffffffffffffffffffffffff1681565b600260009054906101000a900473ffffffffffffffffffffffffffffffffffffffff1681565b600073ffffffffffffffffffffffffffffffffffffffff82169050919050565b6000610504826104d9565b9050919050565b610514816104f9565b82525050565b600060208201905061052f600083018461050b565b92915050565b6000604051905090565b600080fd5b600080fd5b610552816104f9565b811461055d57600080fd5b50565b60008135905061056f81610549565b92915050565b60006020828403121561058b5761058a61053f565b5b600061059984828501610560565b91505092915050565b6000819050919050565b6105b5816105a2565b81146105c057600080fd5b50565b6000813590506105d2816105ac565b92915050565b600080fd5b600080fd5b6000601f19601f8301169050919050565b7f4e487b7100000000000000000000000000000000000000000000000000000000600052604160045260246000fd5b61062b826105e2565b810181811067ffffffffffffffff8211171561064a576106496105f3565b5b80604052505050565b600061065d610535565b90506106698282610622565b919050565b600067ffffffffffffffff821115610689576106886105f3565b5b610692826105e2565b9050602081019050919050565b82818337600083830152505050565b60006106c16106bc8461066e565b610653565b9050828152602081018484840111156106dd576106dc6105dd565b5b6106e884828561069f565b509392505050565b600082601f830112610705576107046105d8565b5b81356107158482602086016106ae565b91505092915050565b6000806000606084860312156107375761073661053f565b5b6000610745868287016105c3565b935050602061075686828701610560565b925050604084013567ffffffffffffffff81111561077757610776610544565b5b610783868287016106f0565b9150509250925092565b60008115159050919050565b6107a28161078d565b82525050565b60006020820190506107bd6000830184610799565b92915050565b60006040820190506107d8600083018561050b565b6107e5602083018461050b565b9392505050565b6107f5816105a2565b82525050565b600081519050919050565b600082825260208201905092915050565b60005b8381101561083557808201518184015260208101905061081a565b60008484015250505050565b600061084c826107fb565b6108568185610806565b9350610866818560208601610817565b61086f816105e2565b840191505092915050565b600060608201905061088f600083018661050b565b61089c60208301856107ec565b81810360408301526108ae8184610841565b905094935050505056fea2646970667358221220938d4bf5841aa7231eab227ced88f01e017e7ecc5011277fd15a50ba95bb6c1664736f6c63430008130033",
  "devdoc": {
    "kind": "dev",
    "methods": {},
    "version": 1
  },
  "userdoc": {
    "kind": "user",
    "methods": {},
    "version": 1
  },
  "storageLayout": {
    "storage": [
      {
        "astId": 3679,
        "contract": "contracts/ERC721GatewayDestination.sol:ERC721GatewayDestination",
        "label": "admin",
        "offset": 0,
        "slot": "0",
        "type": "t_address"
      },
      {
        "astId": 3681,
        "contract": "contracts/ERC721GatewayDestination.sol:ERC721GatewayDestination",
        "label": "pendingAdmin",
        "offset": 0,
        "slot": "1",
        "type": "t_address"
      },
      {
        "astId": 3054,
        "contract": "contracts/ERC721GatewayDestination.sol:ERC721GatewayDestination",
        "label": "token",
        "offset": 0,
        "slot": "2",
        "type": "t_address"
      }
    ],
    "types": {
      "t_address": {
        "encoding": "inplace",
        "label": "address",
        "numberOfBytes": "20"
      }
    }
  }
}